:060000000A128A11142906
:10000800F100030EF2000B19272034200B181220E0
:100018001A20720E8300F10E710E09000313831269
:10002800061C850A861C85030B100800051E262859
:10003800851F1F2821288501262885010514851478
:10004800051585150800F00B2C283120F30A031339
:1000580083123C3081000B1108000A30F0000800C0
:10006800731E4028F31F39283B28F3014028F30169
:0A0078007314F3147315F315080058
:100200008A010A140F3982073F3406345B344F34B5
:1002100066346D347D3407347F346F3477347C3406
:1002200039345E34793471340A30F0000A30F40025
:1002300043212A213C2121215021031383125621DD
:100240001F2903138316161496140313831206082A
:100250000B10080003178316880189010313831606
:100260008501880187010614861481130313831204
:100270008501880187010800031383160F138F1669
:100280000F120F1408000313831681128111011538
:1002900081100110031383123C3081000B11080000
:1002A0008B178B150B108B160B1108007308002190
:0402B00087000800BB
:04400E00C430FF3F7C
:00000001FF
